:020000040001F9
:1060000060370020A1B80100BBB80100BDB8010095
:106010000000000000000000000000000000000080
:10602000000000000000000000000000BFB80100F8
:106030000000000000000000C1B80100C3B801006A
:10604000C5B80100C5B80100C5B80100C5B8010058
:10605000C5B8010000000000D57C0100316D0100D1
:10606000C5B80100C5B80100C5B80100C5B8010038
:10607000C5B80100C5B80100C5B80100C5B8010028
:10608000C5B8010083880100C5B80100C5B801008A
:10609000A5880100C5B801002BB80100C5B80100F2
:1060A000C5B80100C5B801000000000000000000F4
:1060B00000000000000000000000000000000000E0
:1060C00000F002F800F040F80CA030C8083824189E
:1060D0002D18A246671EAB4654465D46AC4201D120
:1060E00000F032F87E460F3E0FCCB6460126334212
:1060F00000D0FB1AA246AB4633431847F85C0000B9
:10610000185D0000103A02D378C878C1FAD8520757
:1061100001D330C830C101D504680C60704700005D
:106120000023002400250026103A01D378C1FBD8B3
:10613000520700D330C100D50B6070471FB5C04671
:10614000C0461FBD10B510BD05F0F4FD1146FFF7A8
:10615000F5FF01F00DFC05F00CFE03B4FFF7F2FFB4
:1061600003BC05F011FE0000401E00BF00BF00BFD1
:1061700000BF00BF00BF00BF00BF00BF00BF00BF27
:1061800000BFF1D17047000070B505460C461646B9
:1061900002E00FCC0FC5103E102EFAD2082E02D30B
:1061A00003CC03C5083E042E07D301CC01C5361F1E
:1061B00003E021782970641C6D1C761EF9D270BD35
:1061C0008A88428270470022D24342827047F8B5E3
:1061D00004460E46207D002820D0B51D2988608900
:1061E00081421AD1288B022817D12068002814D0A8
:1061F00000BF00BFA97EEA7E120211430846C10714
:10620000C90F002902D00020009001E00120009079
:10621000694620462268904700BF00BFF8BD70B5B0
:1062200005460C462088102804D0112807D0502895
:106230000FD109E021462846FFF7C2FF0AE02146B8
:106240002846FFF7C0FF05E021462846FFF7BFFFBD
:1062500000E000BF00BF70BDF0B591B004460D4630
:10626000207D002819D00020099000BF08A80079DF
:1062700001090901491C08A801710079F02188432E
:10628000103008A9087100BF697B08A841718079A6
:1062900006218843801C08A988711C210AA805F0E2
:1062A00097FC08A8007A02218843811C08A8017283
:1062B000007A10218843217D002901D0012100E0CE
:1062C0000021090110221140084308A9087200208A
:1062D0000B900D900E90207D002801D009A800E0C1
:1062E00000200F900020109000BF012168468173AC
:1062F0007749818100BF00200290A97B6846017226
:10630000E97B4172807A06218843811C684681724C
:10631000807A08218843014668468172807A10217C
:106320008843014668468172807A41084900684680
:106330008172297B0191142104A805F049FC03A86E
:10634000049002A805900121684601830021418341
:106350000121818301A80890A088A31D04AA0AA98D
:10636000A2DF0646002E02D0304611B0F0BDA8686C
:1063700000284DD000BF01216846817355498181B5
:1063800000BF00200290287C6946087200BF684662
:10639000407A0109090168464172407AF021884338
:1063A0006946487200BF6846807A06218843811C8E
:1063B00068468172807A0821884301466846817266
:1063C000807A10218843014668468172807A4108AC
:1063D000490068468172A96803F084F807461421D1
:1063E00004A805F0F5FB03A8049002A805906846F0
:1063F000078300214183018B81830890E088224636
:106400000E3204A9A3DF0646002E03D03046ACE7C7
:106410000020E0810020A8E7F8B504460D46286872
:1064200020600020C043608228792075FF202074FE
:1064300000BF0121684681702749018000BF221DED
:1064400069460120A0DF0646002E01D03046F8BD87
:1064500029462046FFF700FFF9E733B585B004462B
:106460000025207C6946097E88422FD001210491B5
:106470006846007E2074E08806AB04AA0021A4DFF1
:106480000546002D02D0284607B030BD608A13496A
:10649000884219D0207D002816D00020009001905D
:1064A0000290039001210491E18868460180012156
:1064B00081700021818004A8029006A80390608A60
:1064C0006946A6DF054600E0082500BF2846DBE751
:1064D000192A0000082900000F180000FFFF000023
:1064E00070B504460D4600BF002D01D0012000E02C
:1064F00000200646002E05D100BFE6A2332100F0A1
:10650000D1FD00BF00BF00BF002C01D0012000E082
:1065100000200646002E05D100BFDEA2342100F087
:10652000C1FD00BF00BF2878207029882879FF238B
:106530001B02194000200206080A104360702879E7
:106540001B022968194000200204080C1043A070A7
:1065500029791B022868184000210902000E08430F
:10656000E07028792071287A6071190CA8680840B9
:10657000000AA0710902A8680840000CE07170BD13
:10658000F8B505460E46002400BF002E01D00120BC
:1065900000E000200746002F05D100BFBDA24B211F
:1065A00000F080FD00BF00BF00BF002D01D0012022
:1065B00000E000200746002F05D100BFB5A24C2106
:1065C00000F070FD00BF00BF32782046611CCCB2E5
:1065D0002A542919708800F054F90019C4B22919F5
:1065E000B08800F04EF90019C4B22919F08800F003
:1065F00048F90019C4B200BF072C01D1012000E006
:1066000000200746002F05D100BFA2A2542100F0B0
:1066100049FD00BF00BFF8BDF0B58FB007460D467D
:1066200014461E4600BF002D01D0012000E00020CE
:1066300000900098002805D100BF96A26D2100F0BF
:1066400031FD00BF00BF00BF002C01DD012000E0D4
:10665000002000900098002805D100BF8DA26E2177
:1066600000F020FD00BF00BF1C2107A805F0B0FA14
:106670006946087F02218843801C6946087700200C
:1066800008900A900B900C900D9000BF012108A873
:1066900081766846078700BF002001903178684600
:1066A000017171784171807906218843811C6846A7
:1066B000817180790821884301466846817180791B
:1066C000102188430146684681718079410849005C
:1066D00068468171142102A805F07AFA0EA802908A
:1066E00001A80390684604820021418284820695B5
:1066F00002AA07A96D480088149BA2DF0FB0F0BD65
:106700007FB5044600BF01216846817368498181D5
:1067100000BF664A03A90120A0DF0546002D02D074
:10672000284604B070BD208800280DDD6148009027
:10673000228823463C3360486168FFF76DFF0546B9
:10674000002D01D02846ECE7208900280EDD5B48AB
:106750000090228923463C335748401FE168FFF7E9
:106760005BFF0546002D01D02846DAE7208A002885
:106770000EDD53480090228A23463C334E48001FCA
:106780006169FFF749FF0546002D01D02846C8E79B
:10679000208B00280EDD4B480090228B23463C3393
:1067A0004548801EE169FFF737FF0546002D01D0FF
:1067B0002846B6E7208C00280EDD43480090228C46
:1067C00023463C333C48C01E616AFFF725FF05465F
:1067D000002D01D02846A4E7208D00280EDD3B487F
:1067E0000090228D23463C333348401EE16AFFF778
:1067F00013FF0546002D01D0284692E7206B0028A4
:1068000013D001A8216BFFF76BFE314823463C33C0
:10681000082201A900902848801FFFF7FDFE0546C9
:10682000002D01D028467CE700BF606B00280FD008
:1068300028480090606B027923463C3301681E486B
:10684000401CFFF7E9FE0546002D01D0284668E709
:10685000A06B002813D001A8A16BFFF791FE1E4882
:1068600023463C33072201A9009013482730FFF745
:10687000D3FE0546002D01D0284652E700BF002078
:106880004FE702460A70FF200002104000124870D5
:10689000022070477372635C736572766963657317
:1068A0005C626C655F6469732E63000000200020E9
:1068B0000A18000002200020292A00000A200020D7
:1068C000122000201A200020222000202A20002050
:1068D000322000203A200020422000208A880284B2
:1068E00070470022D2430284704738B505460C46F3
:1068F000208B022817D12868002814D000BF00BFC1
:10690000A17EE27E120211430846C107C90F002989
:1069100002D00020009001E0012000906946284646
:106920002A68904700BF38BD70B504460D46AE1DBD
:106930003188A089814203D131462046FFF7D5FF37
:1069400070BD70B505460C462088102804D011286B
:1069500007D050280FD109E021462846FFF7BEFF97
:106960000AE021462846FFF7BCFF05E021462846FD
:10697000FFF7DAFF00E000BF00BF70BDF7B582B0DF
:10698000044617460020019001256079002803D0B5
:1069900004210198084301902220005D002803D0C3
:1069A00002210198084301900398FF280ADD012184
:1069B0000198084301907919039800F0AAF9401949
:1069C000C5B205E00398C2B22846691CCDB23A545C
:1069D0004C20005B002803DD102101980843019042
:1069E000002618E0A81C14280BD94C20005B801B43
:1069F0004200700023462433C118184605F0A2F85F
:106A00000DE07919720023462433985A00F081F979
:106A10004019C5B2761C4C20005BB042E2DC00BFDE
:106A20004C20005B801B81B24C20015301983870D0
:106A3000284605B0F0BD30B595B005460C4600209F
:106A40000D9000BF08A8007D01090901491C08A894
:106A50000175007DF0218843103008A9087500BF3A
:106A6000217B08A84175807D06218843811C08A8E8
:106A700081751C210EA805F0ABF808A8007E102136
:106A80008843103008A9087600200F9011901290CA
:106A90000DA813900020149000BF01216846817753
:106AA000A049818300BF00200690617B6846017683
:106AB000A17B4176807E06218843811C68468176D1
:106AC000807E08218843014668468176807E1021B9
:106AD0008843014668468176807E41084900491C0A
:106AE00068468176142108A805F072F807A8089076
:106AF00006A8099001AA00212846FFF73FFF01469A
:106B000068460185002141851421818501A80C90EA
:106B1000E8882B46083308AA0EA9A2DF15B030BDBD
:106B200030B58FB005460C461C2108A805F050F87A
:106B300008A9087802218843801C08A90870002051
:106B400009900B900C900D900E9000BF01216846AB
:106B500081727449491C018100BF00200190E17BD2
:106B600068460171217C4171807906218843811C2E
:106B700068468171807908218843014668468171A1
:106B800080791021884301466846817180794108E7
:106B9000490068468171142103A805F019F802A87C
:106BA000039001A804900121684681820021C182DE
:106BB00001210183A0680790E8882B46103303AABF
:106BC00008A9A2DF0FB030BDF8B504460E46306804
:106BD0002060307960710020C04320840021222091
:106BE00001554C20015300BF0121684681704E4978
:106BF000018000BFA21D69460120A0DF0546002DCF
:106C000001D02846F8BD31462046FFF714FF05465F
:106C1000002D01D02846F5E7B068002808D031469D
:106C20002046FFF77DFF0546002D01D02846E9E705
:106C30000020E7E7F0B58BB004460F46208C3B49B7
:106C4000884222D006AA39462046FFF797FE06461C
:106C500005960020019002900390049021896846D7
:106C60008180012181710021018105A8039006A87E
:106C70000490208C01A9A6DF0546002D04D16846AA
:106C8000808AB04200D00C2500E0082528460BB0D1
:106C9000F0BD70B504460D464C20005B14280AD1A7
:106CA0002622A118881E04F04DFF4C20005B401ED8
:106CB00081B24C2001534C20015B005B401C82B22E
:106CC0004C200253490020462430455270BD0146F5
:106CD0004C20405A142801D1012070470020FCE7C5
:106CE0000246108C114B984202D15171002070471E
:106CF0000820FCE722221154704713B582B00446E5
:106D000001200190208A03AB01AA0021A4DF04B076
:106D100010BD02460A70FF200002104000124870A9
:106D200002207047372A00000D180000FFFF000006
:106D3000F8B56048006800282FD000205D49086041
:106D40005D488068C5B201205C4948604B2109015B
:106D500069430846FF2104F047FF41004018FF3017
:106D60000F3086B2304600F05BF80746394654488B
:106D7000FFF773FB0446002C0ED0082C0CD05148B2
:106D8000844209D05048844206D000BF4FA253210C
:106D9000204600F087F900BF00BFF8BD70B50120A4
:106DA0004F49486018204449486000204149086024
:106DB00001204149086007202ADF044600BF25461C
:106DC000002D06D000BF41A26921284600F06AF9D3
:106DD00000BF00BF032107202BDF044600BF25466C
:106DE000002D06D000BF39A26C21284600F05AF9C8
:106DF00000BF00BF072026DF044600BF2546002D48
:106E000006D000BF31A26F21284600F04BF900BF29
:106E100000BF00202749086001202849086070BD94
:106E200070B504462F48844201DB642540E02D48BC
:106E3000643884420BDD2B49091B3A225143084632
:106E4000642104F0D1FE6421081AC5B230E026485E
:106E500084420CDD23496439091B1822514308463A
:106E6000A02104F0C1FE2A21081AC5B220E01F4863
:106E700084420CDD1C49091B0C2251430846FF21AA
:106E80002D3104F0B1FE1221081AC5B210E01848E5
:106E900084420CDD1549091B062251430846FF2197
:106EA000553104F0A1FE0621081AC5B200E0002504
:106EB000284670BD00710040007500400070004021
:106EC0003021002004300000013400007372635C44
:106ED0006170705C626174746572792E6300000089
:106EE00000730040B80B0000B40A000088090000DD
:106EF0003408000000205949486088600920086172
:106F000001205749C8605748544940310860012062
:106F100055490860704770B5544A5349C03900203C
:106F200047DF044600BF2546002D06D000BF50A213
:106F30005521284600F0B6F800BF00BF012045DF0C
:106F4000044600BF2546002D06D000BF48A25921A7
:106F5000284600F0A7F800BF00BF70BD10B50123A0
:106F600003221221104600F043F810BD10B5122084
:106F700000F02BF8132000F028F8FFF7CCFFFFF704
:106F8000B9FFFFF7EBFF01203549086010BD10B5D0
:106F9000002036490C39512212018918C86001209D
:106FA0002F494860122000F01EF810BD10B51320C4
:106FB00000F019F810BD10B5132000F00FF810BD47
:106FC00010B5132000F00AF810BD032105221207A6
:106FD00007231B02D2188300D15070470121814042
:106FE000274A9160704701218140254AD16070474E
:106FF00070B5002B0CD101248C40214DEC60214C4C
:107000001A4D0C3D51263601AD198600AC510BE0EE
:1070100001248C401A4DAC601B4C144D0C3D512684
:107020003601AD198600AC5100BF00BF00BF01247E
:1070300085000E4E0C3EAD192C600C0203252C432E
:1070400015042C431D052C43354651263601AD1938
:107050008600AC5100BF00BF00BF70BD009500406E
:1070600000900040841E0000009200400C60004030
:107070007372635C6170705C6C65642E6300000009
:1070800000050050031F0200031F010030B5130468
:107090008C0023430524240707252D02641985004D
:1070A000635130BD00BFBFF34F8FFE48FE49C8603B
:1070B000BFF34F8F00BF00BFFEE703460C462246DA
:1070C0001946FA48FFF7EEFF034600BFF8A2A821D1
:1070D0001846FFF7E7FF10B50446FFF75FFE10BD47
:1070E00070B50546F6480188F648FFF7A3FD04464B
:1070F000002C0DD0082C0BD0F348844208D0F34864
:10710000844205D000BFEAA2DB212046FFF7CAFF78
:1071100070BD10B503460C46012C27D1102B02D0B0
:10712000112B1CD10EE0E6480088801CE449088041
:1071300008460088FF212D31884202DD3C20E049CD
:10714000088012E0DE480088801EDD49088008467D
:1071500000883C2802DAFF202D30088005E000BFBF
:10716000D3A2FD211846FFF79DFF00BF10BD38B523
:1071700000BF0020D64B06220521009001F096FBAF
:10718000054600BF2B46002B06D000BFC8A2FF213A
:1071900012311846FFF786FF00BF00BFCD4A01211C
:1071A000CD4801F000FC044600BF2346002B06D06A
:1071B00000BFBFA2FF2118311846FFF773FF00BFC1
:1071C000C64A0121C64801F0EEFB044600BF234633
:1071D000002B06D000BFB6A2FF211D311846FFF7D5
:1071E00061FF00BF38BD3EB500BF684600780109A9
:1071F0000901491C009168460078F021884310304D
:10720000009000BF0A22B7A168467CDF044600BF99
:107210002346002B06D000BFA5A2FF21313118461E
:10722000FFF740FF00BFB24878DF044600BF2346A7
:10723000002B06D000BF9EA2FF2134311846FFF775
:1072400031FF00BF002001900290FF21913168467C
:1072500081804900C18000210181FF21913141815C
:1072600001A87ADF044600BF2346002B06D000BFEA
:107270008FA2FF213E311846FFF714FF00BF3EBD2D
:1072800010B592B0062103919A4A07CA6B4607C30C
:10729000382104A804F09CFC0221684601740121F5
:1072A0008174818203A906910321018569460B91AE
:1072B000002104A801F044FF044600BF2346002B30
:1072C00006D000BF7AA2FF215F311846FFF7EAFE21
:1072D00000BF1421884804F07BFC00208649087018
:1072E0004860087228200882B420488212B010BD7D
:1072F00010B59CB003210191142117A804F068FC7B
:10730000002118A8017001A8199000BF18A8007AE0
:1073100001090901491C18A80172007AF02188436B
:10732000103018A9087200BF00BF17A8407B0009E1
:10733000000117A9487317A8407BF021884317A9BB
:10734000487300BF00BF17A8807B00090001887345
:1073500017A8807BF021884317A9887300BF00BF5E
:1073600018A8C07A01090901491C18A8C172C07A7D
:10737000F0218843103018A9C87200BF00BF17A8B9
:10738000007C0009000117A9087417A8007CF021EF
:10739000884317A9087400BF4A48FFF715FC044644
:1073A00000BF2346002B06D000BF41A2FF21893138
:1073B0001846FFF777FE00BF142112A804F008FC5E
:1073C00000BF10A8407D01090901491C10A84175A2
:1073D000407DF0218843103010A9487500BF00BFE0
:1073E00012A8807B00090001401C12A9887312A812
:1073F000807BF0218843103012A9887300BF00BF42
:1074000012A8C07B00090001C87312A8C07BF0213C
:10741000884312A9C87300BF00BF10A8007E0109ED
:107420000901491C10A80176007EF0218843103024
:1074300010A9087600BF00201290012110A8017346
:1074400000201490642110A8017512A92B48FEF7A2
:10745000E3FF044600BF2346002B06D000BF14A262
:10746000FF219B311846FFF71DFE00BF402102A8F7
:1074700004F0AEFB22A102A802F052F800BF10A84F
:10748000007901090901491C10A801710079F02156
:107490008843103010A9087100BF00BF11A84078C0
:1074A000000937E00400FA0500ED00E0EFBEADDEB4
:1074B0007372635C6170705C6D61696E2E63000055
:1074C0004C2000204821002004300000013400003E
:1074D00098210020D770010050200020E1700100A9
:1074E000542000204E6F726469635F48524D000063
:1074F00041030000B4BD01001C2100203021002008
:107500004E6F7264696353656D69636F6E64756312
:10751000746F7200000111A9487011A84078F02121
:10752000884311A9487000BF02A8FFF7E9F8044694
:1075300000BF2346002B06D000BFFA4AFF21A63128
:107540001846FFF7AFFD00BF1CB010BD10B588B0E6
:107550001C2101A804F03CFB002001900520C00381
:1075600002900F2000040390032168460174EE4846
:107570008189684641820121017500200690EB480F
:10758000079001A801F077FE044600BF2346002BB8
:1075900006D000BFE34AFF21BF311846FFF782FD46
:1075A00000BF08B010BD70B505460E46134600BFBB
:1075B0001C46002C06D000BFDA4AFF21CB31204602
:1075C000FFF770FD00BF002070BD1FB503F064FD24
:1075D000044600BF2346002B06D000BFD14AFF213E
:1075E000DA311846FFF75EFD00BF1120D049096966
:1075F000C140C907C90F002901D1012000E00020C6
:10760000039003A802F025FA044600BF2346002B8E
:1076100006D000BFC34AFF21E0311846FFF742FD04
:1076200000BF062101A8023004F0D0FA1E216846EE
:10763000C180007A40084000401C694608726846D4
:10764000007A02218843694608726846007A1C2144
:1076500088430C30694608726846007A20218843C6
:107660006946087207216846417210218172B1484B
:1076700000900121684601716946AF4802F058FA4E
:10768000044600BF2346002B06D000BFA54AFF21B9
:10769000EF311846FFF706FD00BF1FBD38B568463D
:1076A00003F0FDFF044600BF2346002B05D000BFBA
:1076B0009C4AA2491846FFF7F5FC00BF0098002835
:1076C00003D001209E49087038BD34DF044600BF56
:1076D0002346002B06D000BF924A9849093118462C
:1076E000FFF7E0FC00BF00BFEEE710B50446022C38
:1076F00002D0032C0BD100E000BF91480078002895
:1077000004D000208E490870FFF7C8FF00E000BFDA
:1077100000BF10BD10B50446204603F01AFC2046F9
:10772000FFF7E3FF10BD10B50022012109048548D1
:10773000006801F07FF9044600BF2346002B06D005
:1077400000BF784A7D491E391846FFF7ABFC00BFE1
:1077500000220121C9037C48006801F06BF904464E
:1077600000BF2346002B06D000BF6E4A73491B3969
:107770001846FFF797FC00BF10BD70B50546288876
:10778000102804D0112819D019282CD119E0FFF79E
:10779000FEFBB4206D490880FFF7C5FF00F0DBF960
:1077A000044600BF2346002B06D000BF5D4A4F2190
:1077B000C9001846FFF776FC00BF15E0FFF76EFF23
:1077C00012E0A87900280DD1FFF7E1FB0322114652
:1077D0001020FFF75BFC032211461120FFF756FC37
:1077E000FFF75CFF00E000BF00BF70BD10B50446AE
:1077F000204602F0E0FD21464B48FFF7A2F8214663
:107800005348FEF70CFD204601F00FFE2046FFF71F
:10781000B4FF10BD38B500BF002350224D490820E9
:1078200003F0BBFF054600BF2B46002B06D000BF70
:107830003C4AFF21FC311846FFF734FC00BF00BF73
:10784000002000900090684660DF044600BF234699
:10785000002B06D000BF334A38494F391846FFF78E
:1078600021FC00BF3C4803F0CEFF044600BF234686
:10787000002B06D000BF2B4A30494B391846FFF782
:1078800011FC00BF354803F0C7FF044600BF234684
:10789000002B06D000BF234A284947391846FFF776
:1078A00001FC00BF38BD10B500BF2D49012000F01C
:1078B00091FA044600BF2346002B06D000BF194AA8
:1078C0001E493F391846FFF7EDFB00BF00BF10BD52
:1078D00010B500BF0023234A0221234800F0F9F825
:1078E000044600BF2346002B06D000BF0D4A1349B3
:1078F0002E391846FFF7D6FB00BF00BF10BD10B5EC
:107900001A4873DF044600BF2346002B06D000BF91
:10791000044A0A4910391846FFF7C4FB00BFFFF7B5
:1079200025FB10BDB074010048210020C970010082
:1079300000050050A77501005920002051020000E9
:107940005820002050200020542000204C200020EF
:107950003021002070240020ED7701001577010010
:10796000C0240020660600005C2000201C210020AE
:10797000FFF7FDFBFFF797FFFFF7AAFFFFF74AFFAF
:10798000FFF723FEFFF72FFCFFF77AFCFFF7B0FCB1
:10799000FFF7DCFDFFF7B3FF00BF40DF044600BF89
:1079A0002346002B05D000BF024A03491846FFF7C3
:1079B00079FBF2E7B0740100F1020000F8B504466B
:1079C0000D4694480068002813D0EAB22178914B04
:1079D00060681B689847064600BF3746002F06D0F0
:1079E00000BF8DA228213846FFF75CFB00BF00BF17
:1079F0000CE0012D04D1207801216268904705E058
:107A0000002D03D12078002162689047F8BDF8B5B9
:107A1000074669468748007800F0EDFA0646002ED2
:107A200000D0F8BD002534E0E80083490968441817
:107A300082480068227801219140084000280FD038
:107A4000606800280CD06078012804D1002120460D
:107A5000FFF7B4FF1BE001212046FFF7AFFF16E060
:107A600076484068227801219140084000280ED0D5
:107A7000606800280BD06078012804D101212046DD
:107A8000FFF79CFF03E000212046FFF797FF681CEB
:107A9000C5B26B4800788542C6DB00BFC1E770B550
:107AA00004460D466748006800F0F5FF0646002EC4
:107AB00000D070BD614844600560204628430246FE
:107AC000614801685F48006800F0B4FF064600BFE7
:107AD000EFE7FFB583B006460C461746052F02D2E6
:107AE000072007B0F0BD544806605548047056485A
:107AF0000760484906980860002515E0E1008819EC
:107B0000027800928178019101998900052212077B
:107B100007231B02D318009A9200995000BF0278E5
:107B2000012191400D4300BF2046611ECCB20028C8
:107B3000E4D1464B2A4629463E4800F085F902909A
:107B40000298002801D00298CBE7414A00213D4825
:107B500000F029FFC5E710B537480068002801D1BB
:107B6000082010BD3348007800F0B3F9F9E710B5EC
:107B700031480068002801D1082010BD2D48007848
:107B800000F018FA0446002C01D02046F5E72D48F5
:107B9000006800F080FFF0E7F8B506460C4628487C
:107BA0000078864201DD0720F8BDF000224909680F
:107BB000451821480068002801D10820F4E76946EB
:107BC0001C48007800F017FA0746002F01D038460D
:107BD000EAE7687800280CD129780098C840C007E7
:107BE000C00F002802D00020207011E0012020707A
:107BF0000EE0687801280BD129780098C840C007AA
:107C0000C00F002802D00120207001E00020207069
:107C10000020C9E7782000207372635C6C6962728F
:107C200061726965735C6170705F627574746F6EA8
:107C30002E6300007C2000206C2000208420002087
:107C40007020002080200020742000209F7A0100F6
:107C50000F7A0100F0B502460C46002037E0012300
:107C60008340194623460B40002B2FD0D5680D408A
:107C7000002D05D101235B04D5680D43D56004E0D8
:107C800003231B04D5688D43D56005252D070726E2
:107C90003602AD198600AD5903263604B5430526D4
:107CA000360707273F02F6198700F55105252D07EE
:107CB00007263602AD198600AD591D430526360745
:107CC00007273F02F6198700F55100BF401C202806
:107CD000C5D3F0BDF0B585B0EF4805690020EF4988
:107CE000C86300263FE014207043ED49096844183A
:107CF0000120B040EB4909680840002831D0E06815
:107D0000C043684021680840074639462046FFF7CF
:107D1000A1FFE148006968400390039800280ED055
:107D200003980543E068C04368402168084000901C
:107D300020460099FFF78EFF0098074300BFA06818
:107D4000A84338400190606828403840029001996B
:107D500002980843002803D02269019902989047AD
:107D600000BF701CC6B2D04800788642BBDB05B0AD
:107D7000F0BD10B50146002029E014224A43C84B4B
:107D80001B689A58012383401A40002A1ED00522FE
:107D9000120707231B02D2188300D25803231B04A7
:107DA0009A4305231B07072424021B1984001A5138
:107DB0000522120707231B02D2188300D25805237D
:107DC0001B07072424021B1984001A51401C202879
:107DD000D3D310BD70B505460C46002C01D1072049
:107DE00070BD20468107890F002901D1012100E0E3
:107DF0000021002901D10720F2E7A9480460AB481F
:107E000005700020A8490870A6490860A7480078B6
:107E1000142250430146A248006803F0D9FE002016
:107E2000C043A3498860062001218140A14A116016
:107E300000BF012100F0F9F80620012181409E4A8F
:107E4000116000BF0020CBE7F8B504460D4616468A
:107E50001F4693480068002801D10820F8BD002F74
:107E600001D10720FAE790480078904909788842C4
:107E700001DB0420F2E7284630438B4909781422BD
:107E80005143874A1268505087480078142148436C
:107E900083490968401845608348007814214843A5
:107EA0007F490968401886607F480078142148435C
:107EB0007B490968401807617B48007820707A4840
:107EC0000078401C784908702078FFF752FF0020A6
:107ED000C4E7F0B5024672480068002801D10820C6
:107EE000F0BD71480078824201DB0720F8E70020EE
:107EF0006A4BD863684804696A480068002802D160
:107F000058066B4B586001209040664B1B68184325
:107F1000644B1860002314205043614D2D684019B4
:107F2000C360002142E001238B40184614235343D1
:107F30005B4D2D68EB580340002B36D0254605409D
:107F4000002D02D003231B040EE001235B04142543
:107F50005543534E3668AD19ED6805431426564314
:107F60004F4F3F68F619F56005252D0707263602A5
:107F7000AD198E00AD5903263604B54305263607E4
:107F800007273F02F6198F00F55105252D07072613
:107F90003602AD198E00AD591D4305263607072759
:107FA0003F02F6198F00F55100BF491C2029BAD3B2
:107FB000002095E710B5044639480068002801D133
:107FC000082010BD38480078844201DB0720F8E71C
:107FD0002046FFF7CEFE0120A040324909688143C8
:107FE000304801600068002803D10120C0073049F3
:107FF00088600020E5E710B502462948006800289F
:1080000001D1082010BD28480078824201DB0720FA
:10801000F8E714205043224C246803191E480069D5
:108020001C68204008600020ECE710B5002819DA31
:10803000224A03071B0F083B9B089B00D25883076B
:10804000DC0EFF23A3409A438B071B0E8407E40E2C
:10805000A3401A43194B0407240F083CA408A400AA
:108060001A5118E0144A03231B02D21883089B00FC
:10807000D2588307DC0EFF23A3409A438B071B0EC5
:108080008407E40EA3401A430B4B032424021B195C
:108090008408A4001A5110BD000500504061004042
:1080A000942000208C20002091200020902000208F
:1080B0000063004080E200E000E100E01CED00E031
:1080C00010B5002819DAFB4A03071B0F083B9B0871
:1080D0009B00D2588307DC0EFF23A3409A438B07F3
:1080E0001B0E8407E40EA3401A43F24B0407240F2F
:1080F000083CA408A4001A5118E0EF4A03231B020D
:10810000D21883089B00D2588307DC0EFF23A340BC
:108110009A438B071B0E8407E40EA3401A43E64BD9
:10812000032424021B198408A4001A5110BD10B5A1
:108130000446E248846003211120FFF7C1FF10BD0F
:1081400010B501200004DE494860DD49403948602F
:10815000112000F0EBFC112000F0DAFC0120D949DD
:1081600008602F20FEF700F80120D749087010BDE5
:1081700010B5112001218140CF4A8032116000BF2B
:1081800001200004CE498860CD4940398860012033
:10819000CC4948602F20FDF7E7FF0120C9498860DE
:1081A0000020CA4908602F20FDF7DEFF0020C649E5
:1081B000087010BDF0B5024624205043C44B1B6824
:1081C000C118C4480068401C002802D1C1480260A0
:1081D00059E0C0484B68006824246043BC4C2468C4
:1081E00000194068834217D8BA48006824235843CE
:1081F000B74B1B68C01840684B68C31AB548006885
:1082000024246043B24C246800194360B1480068DC
:108210000862B048026036E04B68AE4D2C682868B2
:108220000DE024254543AA4E3668AD196D685B1BE9
:10823000044624254543A64E3668AD19286A451CD8
:10824000002D07D024254543A14E3668AD196D6831
:108250009D42E6D3451C002D0CD0242545439C4E61
:108260003668AD196D68EE1A24254543984F3F686E
:10827000ED196E604B60086224256543944E3668A4
:10828000AD192A6200BFF0BDF8B5064691480568F1
:108290002C4609E0B44200D109E025462420604381
:1082A0008B4909684018046A601C0028F2D100BF9D
:1082B000601C002800D1F8BDA54210D18548006897
:1082C00024214843824909684018006A81490860AE
:1082D00008460068401C002801D1FFF749FF242010
:1082E00060437B4909684018476824206043784907
:1082F00009684018016A24206843754A126880188A
:10830000016224206843724909684018046A601CAD
:1083100000280CD0242060436D490968401840684B
:10832000C119242060436A4A12688018416000BF66
:10833000C1E710B5112000F0F2FB10BD10B51420FC
:1083400000F0EDFB10BD70B50446634800680028DE
:1083500013D0614AE169A06912689047054600BFE1
:108360002E46002E07D000BF5CA2FF2164313046AC
:10837000FEF798FE00BF00BF02E0A169E0698847F0
:1083800070BDF8B553480068401C00283AD000275B
:1083900000F0FEFB04464D480168204600F0FBFB60
:1083A00006464C48056811E024206843484909689E
:1083B00044186068B04200D90BE06068361A606803
:1083C000C719256A2046FFF7BEFF00BF681C0028BA
:1083D000EAD100BF4848007848490978884209D165
:1083E00046480078401CC0B244490870022801D1B8
:1083F0000020087041480078800041490F50FFF785
:108400009DFF00BFF8BD01463B4800783B4A12780B
:1084100090421DD038480078401C374A10701046F2
:108420000078022801D100201070334800788000C5
:10843000334A10580860254A086812688018234A91
:108440001060104600680002000A106001207047AA
:108450000020086000BFFAE7FEB51E4800680190E2
:108460002848007800906CE00098C0002649096810
:108470004418257861E01820684361680F18681C6B
:10848000C5B2A078A84200D100253878022802D0D1
:1084900003284FD13AE02421786848430C49096801
:1084A0004618307D002804D07868FFF7EDFE0020E4
:1084B000307540E01CED00E000E100E000150140F7
:1084C0004013014000100140C0200020AC200020DB
:1084D0009C200020A8200020BC2000207372635C38
:1084E0006C69627261726965735C6170705F7469F6
:1084F0006D65722E63000000B8200020B9200020B6
:10850000B0200020A0200020A42000200CE0F8498A
:10851000096824225143F74A12688818002101751E
:10852000F34A016A116000BFF1480068401C00284E
:10853000EDD100E000BF00BF00BF6078A8429AD133
:1085400000BF0098411EC9B2009100288CD1E848B4
:1085500001680198814201D00120FEBD0020FCE7A6
:10856000F0B50346002426E0E14E366824277E431A
:10857000E04F3F68F01946689E4203D94668F61AF4
:1085800046601DE046689B1B46683419002646601D
:108590000675D74E3568D64F066A3E600669002ECE
:1085A00008D00E193602360A86600669C66016685B
:1085B0000662156000BFCE480068401C0028D3D179
:1085C00000BFF0BDFEB50746C94800680290CA4822
:1085D000007801906BE00198C000C849096845180F
:1085E0005DE0781C002807D03E4624207043C14936
:1085F00009684418276A23E02978182359436A68D0
:1086000050182978491C29702978AA78914201D1FB
:1086100000212970466824217143B64A12688C18DB
:108620000178012902D1217D002900D037E081683D
:10863000A160C168E160016921614169E16100BF38
:10864000AF49A0680968401A0002000AAD49884293
:1086500008D2AB49A068096800F09DFAE1684018AB
:10866000606011E0A648A168006800F094FA0090EC
:10867000E1680098814204D9E1680098081A6060B6
:1086800001E00020606000BF0020A060E0600120E9
:108690002075801E20623046FFF78CFD00BF781CDD
:1086A00000289ED12878697888429AD100BF019825
:1086B000411EC9B2019100288DD18D4801680298F0
:1086C000814201D00120FEBD0020FCE7FEB58848B4
:1086D0000068401C002834D08548006824214843A5
:1086E000844909684018456800F052FA01908448AE
:1086F00004682146019800F04EFAC61C82480078B2
:10870000002801D1FFF71CFDAE4201D2284600E04F
:10871000304604192402240A20467C49086000BF20
:1087200000F036FA00900199009800F034FAC71C66
:108730002046019900F02FFA874201D9FFF7F9FD91
:1087400001E0FFF715FDFEBDFEB50020C04301901E
:108750006B480468664807686846FFF754FE05469C
:10876000FFF77AFE0646002D05D001AA21460098A3
:10877000FFF7F6FE01260198FFF724FF002800D03E
:108780000126002E02D03846FFF7A0FFFEBD417043
:10879000704770B502460B465078411C907888426D
:1087A00000D100211078884201D1002070BD1960ED
:1087B00050781826704355682C182046F6E7FFB508
:1087C00081B005460E461746E9004C4A12688818E3
:1087D0006946FFF7DEFF0446002C02D1042005B0F5
:1087E000F0BD01202070666000F0D2F9A060E76063
:1087F000049820610A986061E900404A126888186C
:108800000099FFF7C4FFFFF799FD0020E7E7F8B5EF
:1088100004460E46E100394A126888186946FFF797
:10882000B8FF0546002D01D10420F8BD02202870B4
:108830006E60E100314A126888180099FFF7A7FFBF
:10884000FFF77CFD0020F0E738B50446E1002B4A35
:10885000126888186946FFF79CFF0546002D01D174
:10886000042038BD03202870001F6860E100234AFF
:10887000126888180099FFF78AFFFFF75FFD002054
:10888000EFE710B500202249086000212048416030
:108890008160C16000201E49403908604860FFF7D0
:1088A00070FD10BD10B5FFF74FFF10BDFFB581B0D3
:1088B0000E4617461C4620468107890F002901D124
:1088C000012100E00021002902D1072005B0F0BD00
:1088D000002C01D10720F9E7FFF74AFC0D490A985F
:1088E00008600D48067003480460002523E000007E
:1088F000A82000209C200020A0200020A4200020F0
:10890000AC200020FFFF7F00C02000204015014068
:1089100040110140BC20002098200020002124208C
:1089200068439F4A12681154242068439C4A126885
:10893000801801756D1CB542F0DB242070430419CA
:1089400003209849087098480460183400250CE00A
:10895000E900954A126888180021017041708770FB
:108960004460182179430C196D1C032DF0DB0020A5
:10897000C0438E49086000208D4908708D490870F9
:10898000142000F0D3F803211420FFF799FB1420E2
:1089900000F0BEF80198FFF7CAFB00F0F9F886492D
:1089A0000860002092E770B503460C467C480068DA
:1089B000002801D1082070BD002A01D10720FAE764
:1089C000002B01D10720F6E700211CE024204843BA
:1089D000734D2D68285C002814D1012524204843BC
:1089E0006F4E36683554242048436D4D2D6840192C
:1089F0004470242048436A4D2D68401982611960F3
:108A00000020D8E7491C6D4800788142DEDB042055
:108A1000D1E710B500F092F8012802D0032804D164
:108A200001E0002403E0012401E0022400BF00BFB4
:108A3000204610BDFEB504460D461646584800684F
:108A4000002801D10820FEBD5C480078844201D294
:108A5000052D01D20720F6E724206043504909681C
:108A6000085C012801D00820EDE7242060434C4930
:108A7000096840184078012801D1284600E000200C
:108A80000746FFF7C6FF3B462A462146009601905F
:108A9000FFF795FED7E770B5044641480068002807
:108AA00001D1082070BD45480078844201D30720D9
:108AB000F8E7242060433A490968085C012801D09E
:108AC0000820EFE7FFF7A5FF05462146FFF79FFEC9
:108AD000E8E710B532480068002801D1082010BD31
:108AE000FFF797FF0446FFF7AFFEF8E710B504461F
:108AF00000F04EF82060002010BD70B505460E460F
:108B000014463146284600F046F82060002070BD2B
:108B1000C206D20E01219140294A11607047C20657
:108B2000D20E01219140274A11607047C206D20E31
:108B300001219140234A80321160704710B52248CC
:108B40004068C105C90D002920D00A46103A50B22C
:108B500000280DDA1C4B1C330407240F083CA40822
:108B6000A4001B598407E40EE3401B069B0F0BE097
:108B7000134B032424021B198408A4001B598407E7
:108B8000E40EE3401B069B0FD8B210BD0420FCE7A7
:108B90000E48406870470246501A0002000A7047AB
:108BA0009C200020A0200020A4200020A82000203D
:108BB000B8200020B9200020AC2000209820002000
:108BC00000E100E000E200E000ED00E000150140FF
:108BD000F7B584B004460F4606980678B01C1F28E7
:108BE00003DC6078801C1F2802DD0C2007B0F0BD7C
:108BF0001F20801B801E85B20295B11C781802A927
:108C00007DDF03900398002801D00398EEE72078D9
:108C1000022808D168460089A84204DC0920019096
:108C2000684605890BE0082001906078002804D090
:108C30006078A84201DC657801E068460589681C17
:108C4000C2B23046711CCEB23A543046721CD6B213
:108C50000199395406980178A81C0818C1B20698E1
:108C600001700020C2E7F8B505460C462078001DCB
:108C70001F2801DD0C20F8BD684679DF0646002E6E
:108C800001D03046F7E703212278501C2070A95408
:108C900019212278501C2070A95420784119684667
:108CA000008800F08AFA2178401820700020E2E75E
:108CB000F8B505460F4616461C466868002801D1DF
:108CC0000720F8BD2078801C298840181F2801DD66
:108CD0000C20F6E72878401CC1B22278501C207086
:108CE000B1542178481C207077542A882378981929
:108CF000696802F0C3FE20782978401820700020AF
:108D0000DFE730B503461078C01C1F2801DD0C20BA
:108D100030BD02241578681C10704C550A24157853
:108D2000681C10704C551578681C10704B5500204D
:108D3000EEE7FFB587B006461D46109C0020069062
:108D400020780590002747E0B900706841180A882C
:108D50006846028149884181002203A902A865DF93
:108D600004900498002802D004980BB0F0BD684627
:108D7000017B099881422ED10698002801D000205D
:108D800000E00220019020786946097B4118019893
:108D900008181F2801DD0C20E7E70698002809D1F4
:108DA0002078401C20702278511C08982170A8540B
:108DB000012006902078421903A902A865DF0490DB
:108DC0000498002801D00498CFE720786946097BF1
:108DD0004018207000BF7F1C3088B842B4DC069871
:108DE000002806D021780598401C081AC1B20598C1
:108DF00029540020B9E7FFB581B0074615460A9E01
:108E0000009602223846049B0299FFF792FF04461F
:108E1000002C02D0204605B0F0BD00961022294655
:108E20003846049BFFF785FF0446002C01D02046FE
:108E3000F1E70020EFE701460888062808DB0888EC
:108E40001922D201904205DD0888E04A904201D003
:108E5000072070474888062808DB48881922D20175
:108E6000904205DD4888D94A904201D00720F0E7BA
:108E70000888D64A904208D04888904205D0088891
:108E80004A88904201DD0720E3E70020E1E7F8B5DA
:108E900006460D4614462078801D1F2801D90C2057
:108EA000F8BD3046FFF7C7FF0746002F01D0384610
:108EB000F6E705212278501C2070A954122122784F
:108EC000501C2070A95422785119308800F075F98F
:108ED00021784018207022785119708800F06DF9BF
:108EE0002178401820700020DAE7F8B505460E46D4
:108EF00014462879801CC7B22078801CC0191F280E
:108F000001DD0C20F8BD781CC1B22278501C207005
:108F1000B154FF212278501C2070B154227891194D
:108F2000288800F04AF9217840182070A888002885
:108F30000EDDA868002801D10720E3E7AA8823787E
:108F40009819A96802F09AFD2078297940182070B4
:108F50000020D7E7FEB507460E461446386B0028BA
:108F600001D10720FEBD0020019032E0396B0C22B8
:108F7000019850430D182879801CC0B200900098C9
:108F8000401CC1B22278501C2070B15416212278A6
:108F9000501C2070B15422789119288800F00DF9E6
:108FA000217840182070A88800280EDDA8680028C5
:108FB00001D10720D6E7AA8823789819A96802F07A
:108FC0005DFD20782979401820700198401CC0B2BE
:108FD00001903420C15D01988142C7DC0020C1E7C7
:108FE000F8B504460F46164600250020307020785C
:108FF000002809D0324639462046FFF7E9FD0546EC
:10900000002D01D02846F8BDA078002808D03146B0
:109010003846FFF728FE0546002D01D02846F2E726
:10902000A08800280ADD33463A460121201DFFF7BB
:109030003FFE0546002D01D02846E4E7E068002801
:109040000BD00020E168085632463946FFF759FE3A
:109050000546002D01D02846D5E7208A00280CDDE2
:109060003B4606220221204610300096FFF7C3FE41
:109070000546002D01D02846C5E7208B00280CDDD1
:109080003B4607220321204618300096FFF7B3FE27
:109090000546002D01D02846B5E7208C00280CDDC0
:1090A0003B4615221421204620300096FFF7A3FEF0
:1090B0000546002D01D02846A5E7A06A002809D062
:1090C00032463946A06AFFF7E2FE0546002D01D080
:1090D000284698E7E06A002809D032463946E06A17
:1090E000FFF703FF0546002D01D028468BE734200B
:1090F000005D002809DD324639462046FFF72AFF89
:109100000546002D01D028467DE728467BE701462D
:109110008888002808D08868002805D088680078EA
:1091200004221040002801D1072070470020FCE7EE
:1091300001468888002801DD072070470020FCE7F1
:10914000F3B593B00D4600211291119113980028A8
:1091500014D01398FFF7DBFF0446002C02D0204602
:1091600015B0F0BD12AA09A91398FFF739FF0446FC
:10917000002C01D02046F3E709AE00E00026002DC8
:1091800013D02846FFF7D4FF0446002C01D0204618
:10919000E6E711AA01A92846FFF722FF0446002CA2
:1091A00001D02046DCE701AF00E0002710A80379DA
:1091B0003A46017A304672DFD2E702460A70FF2053
:1091C000000210400012487002207047FFFF0000AC
:1091D00001464888BA4A1288904206DB4888B84A55
:1091E0005288904201DC012070470020FCE738B52E
:1091F0000546B4480088B44988423BD0B34800785B
:10920000401CB2490870B248007B097888420FDBE5
:10921000AB49AC48008875DF0446002C07D0AC4849
:109220008069002803D0AA4881692046884721E048
:109230000020A6490870A648007C00280FD03B21DA
:10924000A048008876DF0446002C07D0A04880693B
:10925000002803D09E4881692046884700BF9C486B
:109260004069002806D0002000909948416968466E
:10927000884700BF38BD70B505461C222946944872
:10928000FCF782FF002093490870286800280BD063
:1092900008228B48296802F0F1FB89487ADF0446EE
:1092A000002C08D0204670BD85487BDF0446002C8A
:1092B00001D02046F7E70020C04382490880002003
:1092C00082490870844A00218448FFF76CFBEAE772
:1092D00010B582480068FFF7DEFB10BD38B5804846
:1092E000FFF776FF002829D17A48007800280AD0B5
:1092F00077484069002820D00020009074484169D8
:109300006846884719E071480078002802D1704803
:10931000456801E06E488568002229466F4800686C
:10932000FFF788FB0446002C07D0694880690028B5
:1093300003D067488169204688470AE0644840694D
:10934000002806D00120009061484169684688479E
:1093500000BF00205F49087038BD10B50446A088E2
:1093600058490880082221460E315D4802F086FBEC
:109370000020564908705648C089002801D1FFF7DF
:10938000ADFF5048008883DF10BD70B50546002052
:10939000C0434C49088000204C4908704948008867
:1093A00084DF4E480068FFF776FB0446002C07D0A8
:1093B00047488069002803D045488169204688478E
:1093C00070BD70B50546AC1D20884149C9898842E9
:1093D00020D1208B02281DD100BF00BFA17EE27EDC
:1093E000120211430846C107C90F002902D0FFF736
:1093F00075FF0FE039480068FFF74DFB0646002E69
:1094000007D033488069002803D03148816930464D
:10941000884700BF70BD10B504460822A11D304822
:1094200002F02CFBFFF75AFF10BD10B50446208850
:10943000102806D0112808D012280ED0502810D19C
:1094400007E02046FFF789FF0CE02046FFF79DFF6D
:1094500008E02046FFF7B5FF04E02046FFF7DBFFFA
:1094600000E000BF00BF10BD38B504460822214609
:10947000134802F003FB12487ADF0546002D1CD189
:109480001748FFF7A5FE00280BD1012011490870ED
:109490000B490C48008875DF054601200B49087010
:1094A0000BE00B484069002806D0012000900848D6
:1094B00041696846884700BF0025284638BD00003E
:1094C000C4200020CE200020FFFF0000CC20002080
:1094D000D4240020DC200020EF910100D8200020BF
:1094E000D0200020F8B505460E46002432782146EB
:1094F000641C6A5472782146641C6A5400BF022CB2
:1095000001D1012000E000200746002F05D100BF57
:1095100008A22021FDF7C6FD00BF00BF2046F8BD10
:1095200070B504460D46284602F086FA2080656034
:1095300070BD00007372635C6C6962726172696510
:10954000735C626C655F7372765F636F6D6D6F6E77
:109550002E63000070B503460C460820002115E07C
:109560000C254D43FE4EAD19AD7A2540002D0CD093
:10957000FC4DAB4205D00C254D43AD192D899D42C4
:1095800002D11160002003E00520491C0029E7D02A
:1095900000BF70BD10B504461C216143F24A891812
:1095A00008461130062102F011FB1C216143EE4AEE
:1095B0008818102102F00AFBFF211C206043EA4AB0
:1095C000801801741C206043801881760021C943F3
:1095D0001C20604380180183204601F08FF910BDE4
:1095E0007CB50546A9B26A46E04801F07DFE044616
:1095F000002C09D15021684601F0F5FF0446002CEB
:1096000002D12846FFF7C6FF20467CBDF8B50546C7
:109610000E4617460520009000241BE0002D06D1C1
:109620001C206043D0494018008BB8420DD0002D5B
:109630000FD01C216143CC4A8918084610300722FC
:10964000294602F0CBF9002803D1346000200090B5
:1096500002E0641C072CE1D300BF0098F8BD10B5F0
:10966000044601210C206043BD4A80188172891E86
:109670000C20604380180181FF210C20604380187A
:10968000C1720C2161438818072102F09FFA10BDB6
:1096900010B50446002010BDF0B587B007460C4653
:1096A0001420019061780C225143AD4A8918088931
:1096B00001AA02A9AADF0646002E46D16178182227
:1096C0005143AB4A8918081D69468A8802A902F0ED
:1096D00085F9002812D160780C214843A049401830
:1096E000807A0221084002282FD061781822514345
:1096F0009F4A8818182102F06BFA26E0607818213A
:1097000048439B490858002801D09A4D00E09A4DE3
:1097100069468988607818225043954A11506178CB
:1097200018225143924A8918081D69468A8802A95D
:10973000FCF72AFD6078182250438D4A81183423A3
:1097400018223846A847064600BF002007B0F0BDE3
:1097500002460020704770B505460C466178182215
:109760005143834A881834231822294601F0CAFE3F
:109770000646002E0DD16078182148437C490858D0
:10978000401C002805D10021607818225043784AF7
:109790001150304670BD024600207047F8B50446AF
:1097A000002600276078182148437149085800288E
:1097B0001FD060780C21484369494018807A4021C5
:1097C0000840402815D160780C214843644940186E
:1097D000807A2021084020280BD060781821484347
:1097E00063494018061D6078182148436049085AAB
:1097F00087B261780C225143594A891808893A4640
:109800003146A9DF0546002D00D05C4D2846F8BD45
:109810000146002070470146002902D157483338DD
:109820007047FF20087048708870C8700020F7E704
:10983000FFB58BB00F461D4600BF51480068002899
:1098400001D10FB0F0BD00BF1498502800D9F8E73F
:109850000120029007A8FFF7DEFF064600BF019631
:10986000019E002E06D000BF46A251490198FDF787
:1098700019FC00BF00BF00216846017708A80170ED
:109880000695149805900020019017E0019881B288
:1098900003AA364801F028FD0646002E0BD1082207
:1098A00003A90B9802F09AF8002804D10198C1B2DC
:1098B0006846817705E00198401C019001980728CF
:1098C000E4D300BF6846807FFF2848D0042F0AD128
:1098D0001498502803D1202008A9087095E0402052
:1098E00008A9087091E02049681A1C2102F072F959
:1098F0000446072C1DD205A809900D98002810D108
:109900006946887F012181402A4A12681140002956
:1099100001D0012100E00021002902D100200290A5
:1099200073E06946887F00F0E9FF202008A90870ED
:109930006BE02149681A182102F04CF90446002C0A
:109940003CD105A80990202108A8017068464477F9
:10995000807F1C21484304494018069055E076E07A
:10996000E4250020FFFF0000F0240020E02000207C
:10997000CC2500203BB4010071B301004180000000
:10998000F02500207372635C6C69627261726965B4
:10999000735C6465766963655F6D616E616765724E
:1099A0005F7065726970686572616C2E630000009B
:1099B000C6040000E8200020B4250020F749681AFA
:1099C000182102F007F90446002C19D1302108A80B
:1099D0000170684644770121C1770C206043F0494B
:1099E0004018807A0221084002280ED06946497F3B
:1099F00018225143E94A8818182102F0E9F804E0D6
:109A000000200290402008A90870029801281ED169
:109A1000042F06D108A908780321084308A9087073
:109A20000EE0032F06D108A908780121084308A9F0
:109A3000087005E008A908780221084308A9087001
:109A400005A8099008A907A80D9A00F09AFF00BF81
:109A5000F7E67FB50646002E02D1D24804B070BDAD
:109A600000240BE000BF00210C206043CE4A1150BF
:109A70000C2060438018817200BF641C002CF1D060
:109A8000002403E02046FFF7EAFD641C002CF9D017
:109A90001821C24802F09CF8002406E02046FFF797
:109AA00079FDFF20C1490855641C072CF6D35021CD
:109AB000684681810721C181BD480290BD4902A845
:109AC00001F04CFB0546002D30D10120BA49087049
:109AD0003078002821D100241CE0A1B26A46B548A4
:109AE00001F002FC0546002D0FD11C216143B34A51
:109AF000881800231C22694601F004FD0546002D4C
:109B000007D00020AC49087006E00020AA49087080
:109B100002E0641C072CE0D308E06A469089D289F1
:109B2000504381B2A34801F05EFD0546284695E703
:109B300070B505460C4600BF9F480078002802D14A
:109B40009848801F70BD00BF002D01D19548F9E7EE
:109B5000002C01D19348F5E72068002801D19148F5
:109B6000F0E79148006800280FD18F49206808600D
:109B70000622A11D8C48001D01F080FF20798A4932
:109B8000887200202870002601E0864E0A3E30468A
:109B9000D8E770B5044600BF87480078002802D196
:109BA0008048801F70BD00BF002C01D17D48F9E7BF
:109BB00000BF2078012806DA20780C2148437A4932
:109BC0000858002802D17748801FEBE700BF00BF8C
:109BD0006078012807DA60780C2148437049401802
:109BE000807A012802D16F48801CDBE700BF6D4DF1
:109BF000AD1F60780C21484369494018807A0221E2
:109C00000840022809D161780C225143644A89181E
:109C100008896549091D7EDF05462846C2E70246D8
:109C200000BF65480078002802D15E48801F704759
:109C300000BF002A01D15B48F9E7002901D159484A
:109C4000F5E700BF1078012806DA10780C23584396
:109C5000554B1858002802D15248801FE7E700BF33
:109C600000BF5078012807DA50780C2358434C4B3A
:109C7000C018807A012802D14A48801CD7E700BF6B
:109C800050780C235843464BC018807A0423184060
:109C9000002802D0012008700EE050780C235843B1
:109CA0003F4BC018807A40231840002802D0022081
:109CB000087001E0002008700020B8E7F0B5044605
:109CC00000BF3D480078002802D13648801FF0BD13
:109CD00000BF002C01D13348F9E7002901D13148F8
:109CE000F5E70868002801D12E48F0E788680028C9
:109CF00001D12C48EBE700BF2078012806DA207854
:109D00000C256843284D2858002802D12548801F7B
:109D1000DDE700BF00230022002024E01C2545438E
:109D2000264EAD19AD7EED07ED0F002D08D11C2597
:109D30004543AD1997008E68F5511C4EB054521C26
:109D40001C2545431D4EAD19AD7E02263540002D24
:109D500008D11C254543194EAD1910359F000E68DA
:109D6000F5515B1C401C072805D20D799D4202D994
:109D70000D7B9542D2D80B710A730020A7E70246EB
:109D800008488230704770B5044600BF0A48007822
:109D9000002815D10348801F70BD0000CC2500208D
:109DA000E42500200E800000F0250020ED2000209A
:109DB00031980100E0200020EC200020F024002059
:109DC00000BF002C01D1F748E6E700BF207801284A
:109DD00006DA20780C214843F3490858002802D1BC
:109DE000F048801FD8E700BF00BFA078072807DA37
:109DF000A0781C214843ED494018807EFF2802D1FD
:109E0000E848801CC8E700BFA078FFF7E9FB0546DB
:109E10002846C1E770B5044600BFE5480078002831
:109E200002D1E048801F70BD00BF002C01D1DD4889
:109E3000F9E700BF2078012806DA20780C21484392
:109E4000D9490858002802D1D648801FEBE700BF47
:109E5000002600250BE01C206843D4494018807E72
:109E6000FF2803D02846FFF7BBFB06466D1C072DD5
:109E7000F1D33046D7E7FEB504460D4600BFCC48C7
:109E80000078002802D1C748801FFEBD00BF002C0B
:109E900001D1C448F9E7002D01D1C248F5E700BF60
:109EA0002078012806DA20780C214843BE4908585A
:109EB000002802D1BB48801FE7E700BF00BF6078E1
:109EC000012807DA60780C214843BA494018807AA3
:109ED000012802D1B348801CD7E700BF00BFA0789B
:109EE000072807DAA0781C214843B0494018807E33
:109EF000FF2802D1AB48801CC7E700BFA868002834
:109F000012D0686800280FD0686814280CD228780E
:109F1000012809D1637818277B43A74FDB19181D47
:109F20006A68A96801F0AAFDA1786A46A34801F011
:109F3000DBF9064628788000A1490A582146684680
:109F4000904706463046A0E77CB504460D4600BF64
:109F500097480078002802D19248801F7CBD00BF3E
:109F6000002C01D18F48F9E7002D01D18D48F5E78C
:109F700000BF2078012806DA20780C2148438A495E
:109F80000858002802D18748801FE7E700BF00BFBC
:109F9000A078072807DAA0781C2148438349401895
:109FA000807EFF2802D17F48801CD7E700BF607801
:109FB0000C2148437F494018807A0221084002283A
:109FC00002D078488330C9E7A868002812D16868B1
:109FD00014280FD2287801280CD160781821484322
:109FE00075494018001DA8606078182148437249DF
:109FF00008586860A1786A46704801F075F906460D
:10A00000287880006F490A582146684690470646DE
:10A010003046A3E7014600BF65480078002802D11A
:10A020006048801F704700BF002901D15D48F9E7F3
:10A0300000BF0878012806DA08780C2250435A4AF3
:10A040001058002802D15748801FEBE700BF00BF1F
:10A050008878072807DA88781C225043534A8018EA
:10A06000807EFF2802D14F48801CDBE700BF4D48AF
:10A070008230D7E702464B48833070470246494852
:10A08000833070470146474883307047024600BF1F
:10A0900047480078002802D14248801F704700BF1F
:10A0A000002901D13F48F9E7002A01D13D48F5E7F1
:10A0B00000BF1078012806DA10780C2358433A4B79
:10A0C0001858002802D13748801FE7E700BF1078F2
:10A0D00008700020E2E7FEB504460E46A1786A4605
:10A0E000364801F001F90546002D49D160780C2170
:10A0F000484330494018807A20210840202801D068
:10A10000022E01D1304F04E0012E01D12F4F00E08B
:10A110002F4FA0781C225043244A811800231C2270
:10A120006846B8470546002D1AD1022E18D060782F
:10A130000C2148431F494018807A202188436178C8
:10A140000C2251431B4A89188872607818225043A8
:10A15000204A81181C2318226846B847054600BFCC
:10A16000022E0DD020780C2148430F494018807AE8
:10A17000800013490A58214668469047054600BFAB
:10A18000FEBD70B504460D4600BF094800780028A2
:10A1900002D10448801F70BD00BF002C1CD10148B3
:10A1A000F9E700000E800000F0250020F0240020D8
:10A1B000EC200020E4250020CC250020E020002019
:10A1C000C0BD0100D0BD01003BB4010071B301006E
:10A1D00091960100B4250020002D01D1FD48DAE759
:10A1E00000BF2078012806DA20780C214843FA497C
:10A1F0000858002802D1F748801FCCE700BF00BFF5
:10A20000A078072807DAA0781C214843F3494018B2
:10A21000807EFF2802D1EF48801CBCE700BF607839
:10A22000FF281CD12878022819D0A1781C2251437C
:10A23000EA4A8918084610300722294601F01EFC18
:10A24000A07801218140E64A12681143E44A116076
:10A2500000BF02212046FFF73EFF002601E0DD4E51
:10A26000F61F304697E770B504460E4600BFDD483E
:10A270000078002802D1D748801F70BD00BF002C95
:10A2800001D1D448F9E7002E01D1D248F5E700BF4B
:10A290002078012806DA20780C214843CE49085856
:10A2A000002802D1CB48801FE7E700BFC94D093D18
:10A2B000A078FF2817D16078FF282AD060780C2179
:10A2C0004843C9494018807A02210840022820D119
:10A2D00060780C225043C44A81180722304601F0AE
:10A2E000CDFB002515E0A0781C214843BB49401850
:10A2F000807E0221084000280BD1A0781C22504308
:10A30000B64A8018014610310722304601F0B6FBEC
:10A3100000252846B1E77CB50446A1786A46B348D3
:10A3200000F0E2FF0546002D13D161781822514359
:10A33000AF4A88181C231822694601F0E3F8A648A2
:10A34000807A8000AB490A58214668469047054606
:10A3500000BF7CBD70B506460024A7480078800089
:10A36000A6490E50002509E0A3480078401B0006CE
:10A37000800DA24908580419681CC5B2032DF3DBEF
:10A380000321204601F030FC04464520C0438442AE
:10A3900002DDFCF70BFE08E04520C043844202DDED
:10A3A000FCF70EFE01E0FCF706FE93480078401C27
:10A3B0009149087070BDF0B589B004460026FF20B1
:10A3C000029000BF87480078002801D109B0F0BD95
:10A3D00000BF00BF80480068002800D1F6E700BF3A
:10A3E00006A8FFF718FA054600BF2F46002F06D033
:10A3F00000BF834A83493846FCF754FE00BF00BFC4
:10A400000020019007900025201D0490342168460B
:10A410008182FF218176002101760020089020882A
:10A42000102813D0A08808AA0221FFF793F8054648
:10A43000002D0BD10C21089848436B494018C17A74
:10A44000684681760898C1B2684641762088172808
:10A450007BD008DC10280DD011287CD0132876D0B2
:10A46000142875D1D4E0182873D01A2872D0522835
:10A47000F7D115E208AF3A4601216348FFF76AF8C1
:10A4800000900098002807D102210C223868504320
:10A49000554A8018817201E004200090009805461A
:10A4A000002D51D101261121684601730898C1B2CF
:10A4B00068464176A1880C22089850434A4A801881
:10A4C000018102210C2208985043474A801881726A
:10A4D0000C2208995143444A88180722A11D01F013
:10A4E000CDFA607B304000280AD0607B40084749A5
:10A4F000085CFF280AD0607B4008085C029005E0F9
:10A50000414A02A9A01DFFF781F80546002D1BD185
:10A510000298C1B20C2208985043334A8018C17285
:10A520000C210898484311464018807A08210843B6
:10A530000C22089951432C4A89188872694602985E
:10A54000887606A8FFF7E7FEBCE1E2E003E0A0E0C2
:10A55000B7E183E1AEE10C21089848432249401855
:10A56000807A022188430C22089951431E4A891897
:10A5700088720C210898484311464018807A0821B7
:10A58000084008280ED10C2108984843114640186D
:10A59000807A4021084040280FD1002106A8FFF70B
:10A5A0009AFD0AE06846807EFF2806D06946887ECC
:10A5B000FEF7F0FFFF206946887610210C220898EC
:10A5C0005043094A80188172012612206946087397
:10A5D00078E100000E800000F0250020F02400202B
:10A5E000E8200020EC200020E4250020E0200020CE
:10A5F000B4250020D0BD0100F4200020FC2500205F
:10A60000849901003A090000FFFF0000ED200020BE
:10A610000C2108984843FB494018C07AFF2823D1F1
:10A62000E28902A90020FEF7F1FF0546002D1BD1AB
:10A630000298C1B20C2208985043F24A8018C172A5
:10A640000C210898484311464018807A0821084395
:10A650000C2208995143EB4A89188872694602987E
:10A66000887606A8FFF757FE0C2108984843E5496D
:10A670004018C07AFF2806D0182108984843E249BC
:10A680004018001D0190A0880022019981DF054635
:10A6900018E1132069460873A088DC4A00217FDF97
:10A6A0000546002D02D00795002631E00C210898C0
:10A6B0004843D4494018807A042108430C22089961
:10A6C0005143D04A8918887201260C2108984843C2
:10A6D00011464018C07AFF281AD000BF16206946DC
:10A6E0000873182208995143C94A8918081D142172
:10A6F00001F06EFA0C2108984843C2494018807A4C
:10A70000202108430C2208995143BE4A89188872B7
:10A71000D8E00C2108984843BA494018807A0421AF
:10A7200088430C2208995143B64A8918887214202C
:10A73000694608730126A079002802D0A079079005
:10A740008BE0182108984843AF494118E07A887097
:10A75000182108984843AC494118A07A487018223B
:10A7600008995143A84A8918081D142221460C3122
:10A7700001F084F90C2108984843A2494018807AD6
:10A7800040210840402868D10C21089848439D4941
:10A790004018807A082108430C2208995143994AAD
:10A7A000891888720C210898484311464018C07ACD
:10A7B000FF2840D10C22089850430A46811802A86D
:10A7C00000F0A4F80546002D33D16946029888763A
:10A7D0000298C1B20C22089850438A4A8018C1726C
:10A7E000A1891C22029850438A4A80180183E07A8A
:10A7F0004007C00F002817D01C2208995143854AF2
:10A80000881810222146203101F038F91C210898BF
:10A81000484380494018807E410849001C2208981E
:10A8200050437C4A80188176012106A8FFF753FC2B
:10A8300013E0079511E00C2108984843714940182E
:10A84000807A202108430C22089951436D4A8918C7
:10A850008872002106A8FFF73EFC33E00C2108981F
:10A86000484368494018807A402108430C220899DF
:10A870005143644A8918887215206946087300207C
:10A88000079001266148001F807A8000624A1158B3
:10A8900006A888470546002D01D06048079011E0C2
:10A8A0005A48001F807A80005B4A115806A88847E2
:10A8B000079007E000270627E7573846FFF74AFDCD
:10A8C00000E000BF00BF002E16D003A906A8079A1B
:10A8D00000F057F86846007B12280DD100BF0C210C
:10A8E0000898484347494018807A012802D00898C0
:10A8F000FEF7B5FE00BF00BF00BF67E50121814044
:10A90000474A12688A4346490A607047F8B50546C7
:10A910000E46424FBF1C00242EE01C2060433D49E0
:10A920004018807EFF2826D13078022814D01C20C1
:10A9300060434018807E022188431C216143354AD0
:10A94000891888761C21614389180846103007222F
:10A95000314601F093F80BE01C2060432D4940186C
:10A96000807E410849001C2060432A4A8018817675
:10A970002C70002702E0641C072CCED300BF3846A1
:10A98000F8BDF8B504460D4616462048001F076876
:10A99000324629462046B847F8BD02460020704797
:10A9A00070B505460E4631462846FEF775FE04464C
:10A9B000002C02D100BF00BF0446204670BD0246F5
:10A9C0000020704770B505460E4631462846FEF712
:10A9D000C2FE0446002C02D100BF00BF0446204640
:10A9E00070BD01460020704770B505462846FEF749
:10A9F000D5FE0446002C02D100BF00BF044620460D
:10AA000070BD0000E4250020B4250020F4250020BE
:10AA1000CC250020F0240020E0BD01004180000092
:10AA2000E8200020002314214143FC4A5354142100
:10AA3000414389184B8001231421414389188B60BD
:10AA40000023142141438918CB6014214143891804
:10AA50000B611421414389188B80704710B5002089
:10AA6000EF490880EF490870EC49091F08704870E9
:10AA70008870002403E02046FFF7D4FF641C0A2CF2
:10AA8000F9D310BDFFB583B004460F461546032623
:10AA9000E448007800280BD1002D06D10698002844
:10AAA00003D10220DF49087002E00120DD4908706F
:10AAB000DC480078030001F06EF907FD05314E8493
:10AAC000BAD7FD00D8484069401C002808D00122B0
:10AAD0001207126991B2D44A506901F07BF802E082
:10AAE000012000074069401E01210907096989B258
:10AAF000484302900120000700690004820C0120F5
:10AB00000007006980B278430146029821DF0646BB
:10AB1000002E02D10220C3490870D0E0384620DF61
:10AB20000646002E16D1002D11D1069800280AD114
:10AB30002078042803D10720BA4908700AE00520CC
:10AB4000B849087006E00420B649087002E0032006
:10AB5000B4490870B3E0B4484069401C002808D0EC
:10AB600001221207126991B2AF4A506901F032F81E
:10AB700002E0012000074069401E01210907096920
:10AB800089B24843012109070290096989B27943D2
:10AB900008462A46029921DF0646002E10D1069863
:10ABA00000280AD12078042803D106209D49087086
:10ABB00006E005209B49087002E0042099490870CE
:10ABC0007DE099484069401C002808D00122120706
:10ABD000126991B2944A506900F0FCFF02E0012032
:10ABE00000074069401E01210907096989B24843ED
:10ABF000A9004018618840180121090702900969DD
:10AC000089B27943AA00891862888818069A02993D
:10AC100021DF0646002E09D12078042803D1062022
:10AC20008049087002E005207E49087047E0012055
:10AC30000007006980B27843AB00C01802906088BA
:10AC400082082169029821DF0646002E0BD1002DD3
:10AC500006D10698002803D107207249087002E047
:10AC60000620704908702AE06F484069401C00289F
:10AC700008D001221207126991B26B4A506900F0A4
:10AC8000A9FF02E0012000074069401E01210907D9
:10AC9000096989B24843019001200007006981B227
:10ACA000019800F097FF029020DF0646002E04D1A5
:10ACB000072000E002E05B49087000E000BF00BF31
:10ACC000304607B0F0BDF0B585B00F275348001FE0
:10ACD00000781421484351494418E5682078022837
:10ACE00004D0042823D005286FD16FE02069039099
:10ACF0004B48008886026088801B04900398801966
:10AD00000390A0888019451901218902049888427E
:10AD100006D2049882082846039921DF074605E0F9
:10AD2000FF2201322846039921DF074681E0A0680F
:10AD300000013E49401800890490A06800014018B5
:10AD400040890390A0680001401840680290029872
:10AD5000A84205D10399049848436188884202D0EB
:10AD6000A06802280DD101200007006981B22846A1
:10AD700000F030FF2A4909884618304620DF074690
:10AD800022E001200007006981B2284600F022FF7E
:10AD9000064601200007006980B27043281A800827
:10ADA000019001200007006980B2711C484361884E
:10ADB0004919401A8008009031462046009B019AAC
:10ADC000FFF760FE074600BF33E031E001200007D7
:10ADD000006981B2284600F0FDFE0646A0884119B0
:10ADE00001200007006980B27043081A80080490AF
:10ADF000A08840196188421801200007006980B2CC
:10AE0000711C4843801A8008039031462046039BFA
:10AE1000049AFFF737FE07460BE0000028260020C3
:10AE2000002100200321002000100010F026002047
:10AE300000BF00BF002F02D10120F94988703846B9
:10AE400005B0F0BDFFB581B0064617460024F448B2
:10AE500040780A2837D0F2480078F14949784018FC
:10AE6000C4B20A2C02DB20460A38C4B21420604364
:10AE7000EB49091D0E54142060434018076114204B
:10AE800060434118029805C8CA6088601420604376
:10AE9000E34A121D801804994180142060438018F1
:10AEA0000A9981800025101F8078002805D1FFF7BE
:10AEB0000AFF0546112D00D10025D9484078401CD5
:10AEC000D749487000E00425284605B0F0BD10B50C
:10AED0000024D3484078002807DDFFF7F4FE04463D
:10AEE000002C02D0112C00D10024204610BDF8B552
:10AEF0000446CB48007814214843C949091D0E5C1B
:10AF0000081F007814214843C549091D401880686E
:10AF10000001C4490D58C248007814214843C04973
:10AF2000091D40184088091F0090097814225143D8
:10AF3000BB4A121D89180B69111F0978142251434D
:10AF4000B74A121D89180846083022463146A847DC
:10AF5000F8BDFEB505460026B148807801287DD1B0
:10AF60000020AF498870B0480078082811D1022D20
:10AF700003D10020AC49087002E00020AB49087002
:10AF8000FFF7A5FF0646002E02D03046FFF7AFFFC1
:10AF9000FEBD022D02D0032D79D174E0A0480078C7
:10AFA000142148439E49091D4418A1480088401CAB
:10AFB0009F4908802078022807D10846008880022F
:10AFC0006188884201DB012000E0002007462078EC
:10AFD000052805D194480078072801D1012000E018
:10AFE000002002902078042805D18F480078072897
:10AFF00001D1012000E000200190207804280BD12D
:10B000008B48008880026188884205DB864800788A
:10B01000002801D1012000E00020009002980028C3
:10B0200007D10198002804D10098002801D1002FF1
:10B030001FD000207C4908703046FFF758FF784940
:10B040000878FFF7EFFC00207949088074484078C1
:10B05000401E734948700846007800E01AE0401C22
:10B060000870084600780A2803DB084600780A388A
:10B070000870FFF72CFF0646002E02D03046FFF77F
:10B0800036FF05E003E00D20FFF731FF00E000BFD1
:10B0900000BF00BF00BF7BE770B5FFF7DFFC0020FB
:10B0A0006449088064484069401C002808D0012297
:10B0B0001207126991B2604A506900F08BFD02E0FC
:10B0C000012000074069801E01210907096989B232
:10B0D00048435A49086000205549088000BF0DE0E8
:10B0E000002102014F4B99500201D2181181020137
:10B0F000D21891810201D2185181401C0028EFD052
:10B100000820494908704C484069401C002808D074
:10B1100001221207126991B2474A506900F05AFDA4
:10B1200002E0012000074069401E0121090709696A
:10B1300089B24843064601200007006981B23046C3
:10B1400000F048FD054620DF0446002C04D1012014
:10B150003349887035490870204670BDF8B50446FB
:10B160000D4600BF31480078002801D10820F8BD05
:10B1700000BF002C01D10E20F9E7002D01D10E20D7
:10B18000F5E72068002801D10E20F0E7A088012112
:10B190000907096989B2884202DCA088102801DA0F
:10B1A0000720E4E7E088002830D023484069401CAD
:10B1B000002808D001221207126991B21E4A506974
:10B1C00000F008FD02E0012000074069401E012157
:10B1D0000907096989B24843E188A2885143174A9F
:10B1E00012688918884211D3E088A1884843012158
:10B1F0000907096989B288420ADDA188012212077C
:10B20000126990B200F0F0FC002901D00720AEE7EF
:10B2100020798007800F002812D00720A7E70000C0
:10B2200024260020F02600200321002002210020F7
:10B2300000210020F820002000100010FC20002039
:10B24000FE480088012801D1042090E7FB480088CF
:10B250002860FB4800686860F84909880901F94AD4
:10B26000891868684860F5490988090120685050C4
:10B27000A088F2490988090189180881E088EF4906
:10B2800009880901891848810027A688E1884E436A
:10B2900000BF781C87B201200007006980B2B0426D
:10B2A00005D201200007006980B2361A00E00026AE
:10B2B00001200007006980B2E14909684018E049AF
:10B2C000086001200007006980B2B042E1D9DB4884
:10B2D00000880001DB4940188781D8480088401C5D
:10B2E000D6490880002042E73CB5034600BFD64857
:10B2F0000078002801D108203CBD00BF002B01D1FF
:10B300000E20F9E7002A01D10E20F5E71868002881
:10B3100005D118680001CB4C2058002801D1072026
:10B32000EAE75C68186801940090019C18680001C5
:10B33000C44D40190089484320180190009800012D
:10B340002C4600194089009C24016419248960431B
:10B35000009C2401641964680019019CA04201D872
:10B360000720C9E7019C0098546010600020C3E7E3
:10B37000F8B504460E4615461F4600BFB248007891
:10B38000002801D10820F8BD00BF002E01D10E20F9
:10B39000F9E7002C01D10E20F5E72068002805D13F
:10B3A00020680001A7490858002801D10720EAE7D2
:10B3B00020680001A3494018408921680901A14A79
:10B3C0008918098948432168090189184968401882
:10B3D0006168884201D80720D5E7002D06D0206893
:10B3E0000001984940180089A84201DA0720CAE7FD
:10B3F000E81921680901934A89180989884201DD01
:10B400000720C0E7304600F05CF9002804D0384639
:10B4100000F057F9002801D11020B4E7606800F06F
:10B4200050F9002801D11020ADE72B4632462146C5
:10B4300002200097FFF706FDA5E7F8B504460E4683
:10B4400015461F4600BF80480078002801D108201B
:10B45000F8BD00BF002E01D10E20F9E7002C01D16C
:10B460000E20F5E72068002805D120680001754905
:10B470000858002801D10720EAE720680001714937
:10B4800040184089216809016E4A89180989484392
:10B49000216809018918496840186168884201D803
:10B4A0000720D5E7002D06D0206800016549401827
:10B4B0000089A84201DA0720CAE7E81921680901D2
:10B4C000604A89180989884201DD0720C0E73046B3
:10B4D00000F0F7F8002804D0384600F0F2F8002811
:10B4E00001D11020B4E7606800F0EBF8002801D12A
:10B4F0001020ADE72B463246214605200097FFF786
:10B50000A1FCA5E7FFB581B00C4615461E4600BF5D
:10B510004D480078002802D1082005B0F0BD00BFDA
:10B52000002C01D10E20F8E70198002801D10E204F
:10B53000F3E72068002805D1206800014149085838
:10B54000002801D10720E8E7206800013D494018A4
:10B550004089216809013B4A8918098948432168C3
:10B5600009018918496840186168884201D8072094
:10B57000D3E7002D06D02068000132494018008929
:10B58000A84201DA0720C8E7A819216809012D4A55
:10B5900089180989884201DD0720BEE7019800F07B
:10B5A00090F8002804D0304600F08BF8002801D134
:10B5B0001020B2E7606800F084F8002801D1102064
:10B5C000ABE7606881192A46019800F057FA0095A8
:10B5D000206800011B490F58002203212046019BCF
:10B5E000B847002099E7F8B504460D4600BF164855
:10B5F0000078002801D10820F8BD00BF002C01D13F
:10B600000E20F9E72068002805D1206800010D49C7
:10B610000858002801D10720EEE7206800010949F9
:10B620004018408921680901064A89180989484358
:10B630002168090189184968401807E0F8200020AE
:10B64000FC200020F02600200221002061688842B2
:10B6500001D80720D0E7606800F033F8002801D156
:10B660001020C9E723681B011A4FDB1962685B6869
:10B67000D01A226812013B46D218118900F0AAFAAA
:10B68000002901D00720B7E700202B4602462146BB
:10B6900000900420FFF7D6FB06463046ACE7014693
:10B6A00000BF0D480078002801D10820704700BF76
:10B6B000002901D10E20F9E70848407808600020F1
:10B6C000F4E701468807800F002801D10120704768
:10B6D0000020FCE7F0260020022100202426002084
:10B6E00070B506460C46154629462046FBF7E5FC94
:10B6F00070BDF8B55A480078002800D1F8BD594807
:10B700000068002801D1012000E0002005465648CD
:10B710000068002801D1012000E00020064600BF9B
:10B72000002D14D1684651DF0446052C01D10125B6
:10B730000CE0002C06D000BF4CA269212046FBF78C
:10B74000B1FC03E0474900980968884700BF002E14
:10B750001AD14F480088009069464E48006861DF62
:10B760000446052C01D101260DE0002C06D000BFB7
:10B770003EA280212046FBF795FC04E04548006886
:10B7800039490968884700BF002D02D0002E00D03B
:10B7900000E0C5E700BF00BFB0E7FFB581B00C46D1
:10B7A00016461F46002C02D1072005B0F0BD2046EA
:10B7B0008107890F002901D1012100E00021002922
:10B7C00001D10720F1E73348046031480680324850
:10B7D00007603249019810DF0546002D01D0284648
:10B7E000E3E701201E490870162026DFDDE710B5CB
:10B7F00011DF0446002C01D0012000E00020184990
:10B800000870204610BD0146002901D10E20704766
:10B81000154801600020FAE70146002901D10E20F9
:10B820007047104801600020FAE770B51A480068B8
:10B83000002811D0184800688047044600BF2546FC
:10B84000002D07D000BF09A2FF2133312846FBF7A6
:10B8500029FC00BF00BF01E0FFF74BFF70BD0000F7
:10B860000E21002014210020102100207372635C3F
:10B870006C69627261726965735C736F667464652A
:10B88000766963655F68616E646C65722E63000043
:10B890000C2100200821002004210020E1B6010035
:10B8A00003210C4802680A4302600B4802680A43FD
:10B8B00002600A4880470A480047FEE7FEE7FEE7C5
:10B8C000FEE7FEE7FEE7000006480749074A084B87
:10B8D00070470000240500405405004099B901005C
:10B8E000C16001006027002060370020602F002029
:10B8F000602F002032483349086070473248008C7E
:10B90000C0B2012812D13048808C0007000F0028F7
:10B910000CD12D48806AF0210840402806D12A48E1
:10B92000C06A0840002801D1012070470020FCE7D0
:10B930002548008CC0B201282CD12348808C0007F8
:10B94000000F002826D12048806AF02108400028F6
:10B9500006D11D48C06A0840002801D10120704767
:10B960001948806AF0210840102806D11648C06A9C
:10B970000840002801D10120F1E71348806AF02136
:10B980000840302806D11048C06A0840002801D17C
:10B990000120E4E70020E2E710B5FFF7C9FF002827
:10B9A00005D00A480A494860C8130A498861FFF768
:10B9B000A5FF002802D001200749886010BD0000C3
:10B9C0000024F40018210020C00F00F0DFFF07C0A2
:10B9D00000050040006C004000060040034610B522
:10B9E0000B439B070FD1042A0DD308C810C9121F9F
:10B9F000A342F8D018BA21BA884201D9012010BD5B
:10BA00000020C04310BD002A03D0D30703D0521C2E
:10BA100007E0002010BD03780C78401C491C1B1B5C
:10BA200007D103780C78401C491C1B1B01D1921EC6
:10BA3000F1D1184610BD000030B5441C03E0017878
:10BA4000401C00290DD08107F9D10B4BDD0104C842
:10BA5000D11A91432940FAD0001B0A0603D0C01E18
:10BA600030BD001B30BD0A0401D0801E30BD09026C
:10BA7000FCD0401E30BD000001010101F8B5042AD0
:10BA80002CD3830712D00B78491C0370401C521E24
:10BA900083070BD00B78491C0370401C521E830790
:10BAA00004D00B78491C0370401C521E8B079B0F5F
:10BAB00005D0C91ADF002023DE1B08C90AE0FAF707
:10BAC00063FBF8BD1D4608C9FD401C46B4402C432D
:10BAD00010C0121F042AF5D2F308C91A521EF0D45E
